:020000040000FA
:02000000D52801
:08000800FF00030E8301F1006B
:100010000408F200700884001A088000840AF00ABC
:100020008C1A0C286F181928C030040603196F1594
:100030001D28E03004060319EF1572088400710EC4
:100040008300FF0E7F0E090050309900B501B60104
:10005000EF018501FD2550303706031924283708A4
:10006000193C031CEF28370882072928EF28CC28E1
:100070001629B4282A2E052E21298829A529F42CF1
:10008000A729BB299A28742C382C5D2C7B28F328AF
:1000900003299A2F9C2FA82A9F2B172D240882070B
:1000A000CD29CD29CD29262AE629ED29082A0F2A8E
:1000B000382A162A262A382A0F2A240882073B2A99
:1000C0003B2A3B2A4D2ACE28CE28442ACE28CE28A9
:1000D0004D2A4D2ACE28CE2824088207562A562A91
:1000E000562ADE2AE02AEF2AFD2A062B322B0B2B7A
:1000F000162B322B3C2B6F2A24088207592B592BA5
:10010000592B662B632B662B662B662B6B2B662B72
:10011000662B6B2B662B240882076E2B6E2B6E2BA7
:10012000742BCE28CE28742BCE28CE28742B742B7B
:10013000CE28CE28622624088207792B792B792BAA
:10014000CA2B1D2CFE2BCA2BCA2B052CCA2BCA2B43
:10015000052C1D2C28088207762C9C2CA22C9C2C6C
:10016000AD2CE32CE82CEE2C831604308500831292
:10017000452627088207082E0A2E0E2E122E162E2E
:100180008316043085008312452627088207CE2F68
:10019000D02FD42FD82FDC2FFD2514298A27FD2519
:1001A0003F3099003F309900D4288A2707309F00BC
:1001B00083161230990024309800831290309800F2
:1001C000452642309900033099008A27B501FD2564
:1001D00050303706031924282F285830F028513082
:1001E00099001A08E528413099008316851083127A
:1001F00085104D264D264D2685143D26051DF828D3
:1002000059309900E52841309900831685108312F2
:1002100085104D264D264D268514322605190829B0
:1002200059309900E5285930990029280B30C10030
:1002300020308400FD258000840AC10B1A29493032
:100240001429FD25AB00FD25AC00AD01AE01361033
:10025000EF01A030F000942783168C168312C03073
:100260008B00593099006F1D33296F14EF115930ED
:100270009900A03084000008AF00840A0008B00094
:10028000840A4E20B5186E292D082B06031D4C2913
:100290002E082C0603198029EF185E29C0300406A9
:1002A000031D3B29EF1D5229EF14C03084006F104D
:1002B000A030F0006F11593099003B29E03004065E
:1002C000031D3B296F1D6229EF10A03084006F14BD
:1002D000C030F000EF11593099003B2983168C1281
:1002E00083128B014D2694274E309900F7252D0857
:1002F00099002E089900F72533089900340814292D
:1003000083168C1283128B014D26942750301429AA
:10031000FD25AB00FD25AC00AD01AE013610593016
:1003200099008C1E91291A08AF008C1E95291A0875
:10033000B0002D082B06031DA1292E082C06031939
:100340008029593099005D209129A8276C28AD019A
:10035000AE0136108C1A29287C20F7253308990025
:10036000340899002D082006031DAA292E0821060D
:10037000031DAA292928AD01AE0136108C1A29289F
:100380008B20F725340899002D082206031DBE296D
:100390002E082306031DBE292928361C782654085A
:1003A000033A0319D629D40A8E2608009026592725
:1003B00003017927030179270830D007031CE329BB
:1003C000CF0A0319CE0AAA26D4010800361CC92573
:1003D0000C30F7000830F600F1290C30F700193026
:1003E000F6006C2635192E2AC801C90144252E268F
:1003F000C80A7708C9075925B51C032A7608480694
:10040000031DF6292E2A44252E26C90B032A2E2A3F
:100410006C2635192E2A4425342659252E2A6C2679
:1004200035192E2A44252E2659252E2A6C263519B3
:100430002E2A48253426B51F222A0830C10034262A
:10044000C10B1F2A1730E72559252E2A361C7E2678
:100450004E255408033A0319302AD40AC32508004C
:100460001830E72534261730E725C325D4010800C6
:10047000361CC9250F2A36183F2AE82636142F08BD
:10048000FE263008FE2608002F0866253426C325E0
:10049000300866253426C32508002F087225342627
:1004A000C325300872253426C3250800DD26A22680
:1004B0005708B0005808AF008E265908B0005A08F7
:1004C000AF008E265B08B0005C08AF008E265D088A
:1004D000B0005E08AF0090265927B5271329A8273A
:1004E00081268A220530D2009222D20B742A023051
:1004F00084073030CE00CF010C30D000AA269222E3
:10050000043084023030CE00CF010A30D000AA2659
:10051000922213298E30B9278C30B927A0265F305C
:10052000840008000008B000840A0008AF00840AB4
:10053000902659274D26B527D00AAA269026592756
:100540004D26B527B427B427B427D00AAA26080019
:10055000FD25C500FD25C600FD25C7008126DD2639
:100560002030CE00CF012830D000AA264708B000A6
:10057000EF30AF008E264608B0004508AF008E264B
:10058000FF30B000AF008E26FF30B000AF009026E5
:100590005927B5274D26A92343084706031DDC2A02
:1005A0004408EF3A031DDC2A42084606031DDC2AF4
:1005B00041084506031913294E301429B515162B89
:1005C0005F3084006008AF005F08B0006430C9008D
:1005D00044252E26C90BE82ACE254A231329492370
:1005E0005F3084006008AF005F08B0006430C9006D
:1005F00044252E26C90BF82A132949235F3084008D
:100600006008AF005F08B0004E201329B511251A0D
:10061000B515B617162B49235F3084006008AF006C
:100620005F08B000B5174E20B513132936104923C3
:100630005F3084002223B51D1329C3256130840057
:10064000222313290008B000840A0008AF008403A5
:100650004E251830B61B0830E72534261730B61B58
:100660000E30E72D361435166008AF005F08B00075
:100670004E20CF254A2313296008AF005F08B00041
:100680004E203325C325C325C325C325C3254A23AF
:100690001329B525573084000008B000AF014E2063
:1006A000840A5B300406031D4C2BC325C325C325D8
:1006B0000800361C98260930C926B4000930C9261E
:1006C000B300C5250800361CC925662B0430E72574
:1006D0009825C3250800361CC925662B361CE8263C
:1006E0003B27B400C52508000530E7259825C3251C
:1006F00008003F30CE00FF30CF00FE30D000AA26E9
:100700000930C926D5000930C926D600A22657309F
:1007100084000830D2000930C9268000840AD20B38
:100720008B2BA0260730D2000930C9268000840A0E
:100730000930C9268000840AD20B942BF12BA923FF
:100740004408990041089900F72542089900430898
:1007500014292830D000CF012030CE00AA2609303D
:10076000C926C3000930C926C4000930C926C20001
:100770000930C926C1000800361435167C2033081C
:10078000E0003408DF0033257C203308EE00340815
:10079000ED00F12B33257C203308EE003408ED000A
:1007A000B525573084000430BD007C20340880001B
:1007B000840ABD0BD52B7C207C207C203308D600FE
:1007C0003408D5007C203308E0003408DF007C20AA
:1007D0003308E2003408E1007C203308E4003408E8
:1007E000E300433099001A30BD0055308400000802
:1007F0009900840AF725BD0BF72B292833257C2087
:100800003308EE003408ED00CA2B361435167C2070
:100810003308E0003408DF0033257C203308EE0085
:100820003408ED00573084000430BD007C203408CB
:100830008000840ABD0B162CF12B7C203308E000CD
:100840003408DF0033257C203308EE003408ED0047
:10085000573084000430BD007C2034088000840AB6
:10086000BD0B2C2C7C203308E2003408E100F12B76
:10087000FD25BF005226351D552CBE01AD01AE0130
:10088000361025183A257C2033083F06031D572CC7
:100890003408FF3A031D572CBE0B412C20082D06AF
:1008A0000319552C42309900412C59301429251C2C
:1008B0005B2C4330B61D4E3014295A26351D702C42
:1008C000AD01AE0136108B203408FF3A031D722CA7
:1008D00022082D06031D632C23082E06031D632CFE
:1008E000593014294E3014290000AA28B525BD25F9
:1008F0008C2404260230E7257F30B100FE30B200A0
:10090000D7258C2404260330E7257F30B100FE3044
:10091000B200D7258C2413290130E7253226073071
:10092000E72532260830E7254D260130E725322617
:100930000730E72532260800B5250930E7254D2682
:100940004D2613290930E7254D26B5250930E72521
:100950004D260B30E7254D2613294D263C30CE0081
:10096000CF010430D000AA260C305B2780307927D5
:10097000003079275727003079270030792757270B
:100980004D264D26CB2781256430F406031DE02C2F
:100990000530D0004D26C0203D26AA260C305B270E
:1009A000003079270F307927D003AA260C305B2737
:1009B0008F30792700307927B42757274D26B52760
:1009C0004D2604261329B5251F30E7254D2613296A
:1009D000CE250930E7254D264D261329CE25093091
:1009E000E7254D264D261329FD25AF00FD25B00036
:1009F000FD25CA00FD25CB00043024060319C325BC
:100A000033254E20B51C062D43301429A51C13296F
:100A10000430240603191329B525BD254A08AF0063
:100A20004B08B0004E20B51C132946301429FD2573
:100A3000AF00FD25B000FD25CA00FD25CB00C32574
:100A400033254E20B51C262D43301429C325C3253C
:100A5000C325C3254A08AF004B08B0004E20B51C83
:100A6000132942301429AE01AD01C3253A25B61D24
:100A7000352D0800B61120032D06031D0800FF3098
:100A80002E060319B61508004E250830E725080084
:100A90004E251830B51B0830E72508003008B20095
:100AA0002F08B1000310B20DB10D0230E725D72594
:100AB0000800B5140430E725982533082F06031DD8
:100AC0000800340830060319B5100800B2003F30A2
:100AD000B1000330E7250310B20DB10DD725083062
:100AE000E7250800B2003F30B1000330E7250310CE
:100AF000B20DB10DD7251830E72534261730E7257C
:100B000008007930C000F501F401F3013430CF3C26
:100B10008400750880009C30840000143330CD3C84
:100B200084000008F407F306F50AC00B862D0800C0
:100B300083160514831200001030BC0085140000D9
:100B400085100000031005180314B30CB40CBC0B83
:100B50009E2D05108316051083120310B30CB40CE0
:100B60003F30351A0F30B30508000030E7257F30DD
:100B7000B100FE30B200D72508000730C000C32501
:100B8000C00BBF2D08000630E725AE0F0800AD0AE8
:100B9000080035160630E72536140800C325AD01D8
:100BA000AE01C3252D082006031DD12D08001030ED
:100BB000BC00B10CB20C85140318E12D0000051027
:100BC000E32D0514E32D8510BC0BD92D0800B800CA
:100BD0000630B900B80C85140318F12D000005107B
:100BE000F32D0514F32D8510B90BEA2D080083169B
:100BF0000000981CF82D83120800830100008C1E51
:100C0000FE2D1A08B700080035148A274D26B4288F
:100C10002426192E242620262626192E2426202690
:100C20002826192E262620262426192E2826202678
:100C3000242635181D2E5630142935104526080057
:100C4000A51D45263D260800861608000617080043
:100C5000861708008A2745267630142934260E3058
:100C6000E72508000130352E2608BA003030BB00D9
:100C7000BB0B382EBA0B362E0800422642264226DF
:100C800042264226080000000800BB011030BA00CE
:100C9000BB0B482EBA0B482E080045264526452694
:100CA0004526080035152008031D080021080319F2
:100CB0003511080035152208031D08002308031903
:100CC0003511080055308400FF308000840A6F30F1
:100CD0000406031D642E080035113F30351A0F300D
:100CE0002F06031D08003008FF3A031935150800C8
:100CF0008126DD26D001CF01CE01AA26D4013614EB
:100D000008003C30CE00CF010630D000AA260C30BF
:100D10005B27003079270030792708000D30912EAD
:100D20000F305B27300879272F087927C525080061
:100D3000D001CF01CE01AD01AE01AA2636140800C4
:100D40003030A32E2030CE00CF01D001AA26AD0135
:100D5000AE0108005727500879270E30792757270A
:100D6000F63079276E30792757274F0879270E30CC
:100D700079275727F73079276E30792757274E087C
:100D800079270E3079275727F83079276E30792761
:100D900008005B270030792783160514831208307A
:100DA000BC00851443268510432603100518031440
:100DB000D30CBC0BD12E530808005727A630792737
:100DC0008E3079275727A63079279C30792708005D
:100DD0005727A63079279E3079275727A6307927BD
:100DE0009C3079275727003079270E3079275727ED
:100DF000A93079276E30792736140800CC005727A0
:100E00004C0879270E3079275727A83079276E307C
:100E100079275727A63079278430792757275530E7
:100E200079270E3079275727A73079276E30792711
:100E30005727AA3079270E3079275727A7307927E7
:100E40006E3079275727A6307927823079275727A0
:100E5000030179270301792757273230352603010B
:100E60007927030179275727A630792794307927E6
:100E70005127C52508005727A630792780307927C4
:100E80005727A8307927503079275727F530792709
:100E90006E307927B427B4270230C926512753086A
:100EA00008005727A93079272A307927080003013D
:100EB0005B2F0301B516D100432685144326831604
:100EC0000510831243260430BC000510D10C031812
:100ED0000514432685144326B51E722F3C0B722F32
:100EE0003426B51285104326BC0B652F8501432699
:100EF0000800D1000830BC008501D10C031805148E
:100F000043268514432685104326BC0B7C2F850180
:100F100043260800850104308600831607308500CB
:100F20001A3086008312080018121A081A081A08C4
:100F30001816080003301429503099004526313026
:100F400099004526383099004526413099002928D6
:100F500055308400FD258000840A6D300406031D91
:100F6000AA2F553084000800572700307927003019
:100F7000792FFE005727A63079277E08792FFE00AB
:100F800057277E0879270E30792FFE0057277E08D5
:100F900079276E30792F8A274D264D2E2426DF2F74
:100FA000242620262626DF2F242620262826DF2F6B
:100FB000262620262426DF2F2826202624264D2EEE
:02400E002A0383
:1042000043004F0050005900520049004700480049
:1042100054002000320030003000370020004400FD
:1042200049005900200045004C004500430054005F
:1042300052004F004E004900430053002C004A003A
:1042400049004D00200052004F004200450052003E
:10425000540053004F004E002C0020004E0045003B
:10426000570046004F0055004E0044002000450016
:104270004C0045004300540052004F004E004900DE
:10428000430053002E0020005700450042003A0032
:1042900020005700570057002E004B0049005400E3
:1042A00053005200550053002E0043004F004D00B4
:1042B0002C0020005700570057002E004E004500EC
:1042C000570046004F0055004E00440045004C008A
:1042D00045004300540052004F004E004900430087
:1042E00053002E0043004F004D005C004400490085
:0242F000590073
:00000001FF
