:020000040000FA
:040000006726D42873
:08000800FF00030E8301F1006B
:100010000408F200700884001A088000840AF00ABC
:100020008C1A0C286F181928C030040603196F1594
:100030001D28E03004060319EF1572088400710EC4
:100040008300FF0E7F0E090050309900B501B60104
:10005000EF01AB27DE30860508265030370603193E
:1000600024283708193C031C0329370882072A284B
:100070000329C2282C29B6283D2E102E37299E2967
:10008000BB29FA2CBD29D1299C287A2C3E2C632C23
:100090007D2807291829BC2FBE2FD62AA62B222D52
:1000A00024088207E329E329E3293C2AC428C42839
:1000B0001E2A252A1E2A2C2A3C2A4E2A252A2408B2
:1000C0008207512A512A512A632AC428C4285A2A4D
:1000D000C4285A2A632A632AC428C4282408820709
:1000E0006C2A6C2A6C2A0F2BC428C428112B1A2BBB
:1000F000112B1F2B2A2B462B462B882A24088207DC
:10010000602B602B602B6D2BC428C4286D2B6D2BAE
:100110006D2B6D2B6D2B722B6D2B24088207752B8D
:10012000752B752B7B2BC428C4287B2BC4287B2BD9
:100130007B2B7B2BC428C428842624088207802B91
:10014000802B802BD02BC428C428D02BD02B042C60
:10015000D02BD02B0B2C232C280882077C2CA22CF4
:10016000A72CA22CB22CE92CEE2CF42C83160230F6
:1001700086008312672627088207182E1A2E1A2E49
:100180001F2E1F2E08262A29061212118316051665
:100190008312AB270613CC288617CE2808263F30BB
:1001A00099003F309900D328AB278316123099006D
:1001B0002430980083129030980036309F008316C8
:1001C0009530920083124B309500003092000C3035
:1001D0009700672642309900003099008613F02876
:1001E0000617F22861260613F5288617F7286126D8
:1001F000AB27B501082650303706031924283128CB
:10020000032958300429513099001A08F828413040
:100210009900831612308600831286126F266F268D
:100220006F2686165B26061E0D2959309900F82880
:1002300041309900831612308600831286126F2691
:100240006F266F2686165B26061A1E2959309900DE
:10025000F828593099002A280B30C100203084003A
:1002600008268000840AC10B302949302A29082633
:10027000AB000826AC00AD01AE013610EF01A03096
:10028000F000B62783168C168312C0308B005930CD
:1002900099006F1D49296F14EF1159309900A03052
:1002A00084000008AF00840A0008B000840A5020CF
:1002B000B51884292D082B06031D62292E082C064B
:1002C00003199629EF187429C0300406031D51291B
:1002D000EF1D6829EF14C03084006F10A030F000CB
:1002E0006F11593099005129E0300406031D51293E
:1002F0006F1D7829EF10A03084006F14C030F0001B
:10030000EF1159309900512983168C1283128B01F9
:100310006F26B6274E30990002262D0899002E0828
:10032000990002263308990034082A2983168C1272
:1003300083128B016F26B62750302A290826AB007E
:100340000826AC00AD01AE013610593099008C1E64
:10035000A7291A08AF008C1EAB291A08B0002D0877
:100360002B06031DB7292E082C0603199629593090
:1003700099005F20A729CA276E28AD01AE0136106B
:100380008C1A2A287E200226330899003408990006
:100390002D082006031DC0292E082106031DC02993
:1003A0002A28AD01AE0136108C1A2A288D2002268B
:1003B000340899002D082206031DD4292E0823068F
:1003C000031DD4292A28361C9A265408033A0319F7
:1003D000EC29D40AB0260800B22678270301982712
:1003E000030198270830D007031CF929CF0A031905
:1003F000CE0ACC26D4010800361CD4250C30F700D8
:100400000830F600072A0C30F7001930F6008E2667
:100410003519442AC801C9014F254A26C80A770858
:10042000C9076425B51C192A76084806031D0C2A3D
:10043000442A4F254A26C90B192A442A8E263519E3
:10044000442A4F2550266425442A8E263519442AED
:100450004F254A266425442A8E263519442A5325D9
:100460005026B51F382A0830C1005026C10B352A46
:100470001730F2256425442A361CA0265925540835
:10048000033A0319462AD40ACE2508001830F2256B
:1004900050261730F225CE25D4010800361CD4256D
:1004A000252A3618552A092736142F081F27300801
:1004B0001F2708002F0871255026CE2530087125EA
:1004C0005026CE2508002F087D255026CE25300841
:1004D0007D255026CE250800FF26C4265708B000EB
:1004E0005808AF00B0265908B0005A08AF00B0262F
:1004F0005B08B0005C08AF00B0265D08B0005E0885
:10050000AF00B226782703019827030198272929ED
:10051000CA27A3269D220530D200A522D20B8D2A00
:10052000023084070C30D000CC26A522043084028F
:100530000A30D000CC26A52229298E30DB278C302A
:10054000DB27C2265F30840008000008B000840A60
:100550000008AF00840AB22678276F26D727D00A72
:10056000CC26B22678276F26D727D627D627D62798
:10057000D00ACC260800AB276F26831602308600EF
:10058000831267262F263626322638266F266726C0
:100590003510080006121211831605168312AB27B8
:1005A0006F260613D32A8617D52A08000826C50009
:1005B0000826C6000826C700A326FF262030CE0046
:1005C000CF012830D000CC264708B000EF30AF0074
:1005D000B0264608B0004508AF00B026FF30B00096
:1005E000AF00B026FF30B000AF00B226782703017D
:1005F0009827030198276F26B02343084706031D59
:100600000D2B4408EF3A031D0D2B42084606031D2F
:100610000D2B41084506031929294E302A29B51505
:100620002A2B50235F3084006008AF005F08B000C1
:1006300050202929B511251AB515B6172A2B502394
:100640005F3084006008AF005F08B000B51750202D
:10065000B5132929361050235F3084003623B51D89
:100660002929CE2561308400362329290008B000CD
:10067000840A0008AF00840359251830B61B0830DF
:10068000F22550261730B61B0E30F22D36143516D3
:100690006008AF005F08B0005020DA2551232929F7
:1006A000C025573084000008B000AF015020840AF4
:1006B0005B300406031D532BCE25CE25CE25080026
:1006C000361CBA260930EB26B4000930EB26B300FD
:1006D000D0250800361CD4256D2B0430F225A32527
:1006E000CE250800361CD4256D2B361C09275B2728
:1006F000B400D02508000530F225A325CE2508003A
:100700003F30CE00FF30CF00FE30D000CC26093085
:10071000EB26D5000930EB26D600C42657308400DE
:100720000830D2000930EB268000840AD20B922BCD
:10073000C2260730D2000930EB268000840A093037
:10074000EB268000840AD20B9B2BF72BB0234408A6
:1007500099004108990002264208990043082A2975
:100760002830D000CF012030CE00CC260930EB2637
:10077000C3000930EB26C4000930EB26C200093063
:10078000EB26C100080036147E203308E000340850
:10079000DF003E257E203308EE003408ED00F72B05
:1007A0003E257E203308EE003408ED00C02557308A
:1007B00084000430BD007E2034088000840ABD0B14
:1007C000DB2B7E207E207E203308D6003408D50027
:1007D0007E203308E0003408DF007E203308E2008A
:1007E0003408E1007E203308E4003408E30043309D
:1007F00099001A30BD005530840000089900840A21
:100800000226BD0BFD2B2A283E257E203308EE0054
:100810003408ED00D02B361435167E203308E00066
:100820003408DF003E257E203308EE003408ED005A
:10083000573084000430BD007E2034088000840AD4
:10084000BD0B1C2CF72B7E203308E0003408DF00A2
:100850003E257E203308EE003408ED00573084003A
:100860000430BD007E2034088000840ABD0B322C89
:100870007E203308E2003408E100F72B0826BF0091
:100880007426351D5B2CBE01AD01AE013610251856
:1008900045257E2033083F06031D5D2C3408FF3AB2
:1008A000031D5D2CBE0B472C20082D0603195B2C65
:1008B00042309900472C59302A29251C612C43309D
:1008C000361E4E302A297C26351D762CAD01AE0110
:1008D00036108D203408FF3A031D782C22082D068F
:1008E000031D692C23082E06031D692C59302A2963
:1008F0004E302A290000AC28C025C82592240F2696
:100900000230F2257F30B100FE30B200E2259224A1
:100910000F260330F2257F30B100FE30B200E22511
:10092000922429290130F2254E260730F2254E2641
:100930000830F2256F260130F2254E260730F225C9
:100940004E260800C0250930F2256F2629290930D6
:10095000F2256F26C0250930F2256F260B30F225CF
:100960006F2629296F263C30CE00CF010430D000FD
:10097000CC260C307A2780309827003098277627AD
:10098000003098270030982776276F266F26D727C4
:10099000CA228C256430F406031DE62C0530D000F5
:1009A0006F26BB225B26CC260C307A270030982796
:1009B0000F309827D003CC260C307A278F30982719
:1009C00000309827D62776276F26D7276F260F2641
:1009D0002929C0251F30F2256F262929D92509305C
:1009E000F2256F266F262929D9250930F2256F2691
:1009F0006F2629290826AF000826B0000826CA005D
:100A00000826CB00043024060319CE250B3024061B
:100A100003192A2D3E255020B51C102D43302A29BC
:100A2000A51C292904302406031929290F26C025CD
:100A3000C8254A08AF004B08B0005020B51C292932
:100A400046302A290826AF000826B0000826CA002A
:100A50000826CB00CE253E255020B51C312D433035
:100A60002A29CE25CE25CE25CE254A08AF004B0813
:100A7000B0005020B51C292942302A29AE01AD0111
:100A8000CE254525361E402D0800361220032D06A2
:100A9000031D0800FF302E060319361608005925DD
:100AA0000830F225080059251830B51B0830F2250A
:100AB00008003008B2002F08B1000310B20DB10DCC
:100AC0000230F225E2250800B5140430F225A325F2
:100AD00033082F06031D0800340830060319B5102B
:100AE0000800B2003F30B1000330F2250310B20D10
:100AF000B10DE2250830F2250800B2003F30B10008
:100B00000330F2250310B20DB10DE2251830F225A5
:100B100050261730F22508007930C000F501F401A5
:100B2000F3013430CF3C8400750880009C30840091
:100B300000143330CD3C84000008F407F306F50AB6
:100B4000C00B912D0800831606148312000010308C
:100B5000BC0086160000861200000310061803145D
:100B6000B30CB40CBC0BA92D06108316061083120F
:100B70000310B30CB40C3F30351A0F30B305080026
:100B80000030F2257F30B100FE30B200E2250800CF
:100B90000730C000CE25C00BCA2D08000630F22554
:100BA000AE0F0800AD0A080035160630F2253614DF
:100BB0000800CE25AD01AE01CE252D082006031D6F
:100BC000DC2D08001030BC00B10CB20C86160318E6
:100BD000EC2D00000610EE2D0614EE2D8612BC0B37
:100BE000E42D0800B8000630B900B80C86160318CA
:100BF000FC2D00000610FE2D0614FE2D8612B90BEA
:100C0000F52D080083160000981C032E831208009F
:100C1000830100008C1E092E1A08B7000800351445
:100C200006121211831605168312AB276F26B628FB
:100C30003626232E2F26362632263826232E2F26FA
:100C40003826322636266F2635182C2E8613282E67
:100C500006172A2E56302A29351067260800121545
:100C60006F260800A51D6F265B26080006160800E3
:100C7000831605128312051208000612121183163C
:100C800005168312AB2767260613462E8617482EB5
:100C900076302A2950260E30F22508000130512ED8
:100CA0002608BA003030BB00BB0B542EBA0B522EB4
:100CB0000800000008006026602660266026602686
:100CC00008001930C1006726C10B632E0800BB0164
:100CD0001030BA00BB0B6A2EBA0B6A2E08006726CA
:100CE000672667266726080035152008031D0800BB
:100CF000210803193511080035152208031D0800C5
:100D0000230803193511080055308400FF30800096
:100D1000840A6F300406031D862E080035113F300B
:100D2000351A0F302F06031D08003008FF3A03194B
:100D300035150800A326FF26D001CF01CE01CC2611
:100D4000D401361408003C30CE00CF010630D0006C
:100D5000CC260C307A2700309827003098270800DE
:100D60000D30B32E0F307A27300898272F08982798
:100D7000D0250800D001CF01CE01AD01AE01CC26B7
:100D8000361408003030C52E2030CE00CF01D001FF
:100D9000CC26AD01AE0108007627500898270E300A
:100DA00098277627F63098276E30982776274F08B1
:100DB00098270E3098277627F73098276E30982797
:100DC00076274E0898270E3098277627F8309827F0
:100DD0006E30982F08007A27003098278316061463
:100DE00083120830BC008616592686125926031035
:100DF00006180314D30CBC0BF32E530808007627F7
:100E0000A63098278E3098277627A63098279C30D2
:100E1000982F7627A63098279E3098277627A630D9
:100E200098279C3098277627003098270E309827EF
:100E30007627A93098276E30982736140800CC0002
:100E400076274C0898270E3098277627A8309827C1
:100E50006E3098277627A6309827843098277627F3
:100E6000553098270E3098277627A73098276E3070
:100E700098277627AA3098270E3098277627A7300C
:100E800098276E3098277627A630982782309827A3
:100E900076270301982703019827762732305126B9
:100EA00003019827030198277627A63098279430C6
:100EB00098277127D02D7627A6309827803098273D
:100EC0007627A8309827503098277627F53098272E
:100ED0006E309827D627D6270230EB267127530885
:100EE00008007627A93098272A30982F03017A2FF7
:100EF0000301B516D1005926861659268316061009
:100F0000831259260430BC000610D10C03180614B5
:100F1000592686165926B51E912F3C0B912F502627
:100F2000B51286125926BC0B842FDE308605592E49
:100F3000D1000830BC00DE308605D10C0318061441
:100F400059268616592686125926BC0B9B2FDE3051
:100F500086055926080010308500843086008316E7
:100F600017308500233086008312080018121A08F3
:100F70001A081A081816080000302A29503099005B
:100F8000672631309900672638309900672641304E
:100F900099002A285530840008268000840A6D3084
:100FA0000406031DCC2F553084000800762700303E
:100FB00098270030982FFE007627A63098277E08C5
:100FC000982FFE0076277E0898270E30982FFE0077
:0A0FD00076277E0898276E30982FD0
:02400E002A0383
:1042000043004F0050005900520049004700480049
:1042100054002000320030003000370020004400FD
:1042200049005900200045004C004500430054005F
:1042300052004F004E004900430053002C004A003A
:1042400049004D00200052004F004200450052003E
:10425000540053004F004E002C0020004E0045003B
:10426000570046004F0055004E0044002000450016
:104270004C0045004300540052004F004E004900DE
:10428000430053002E0020005700450042003A0032
:1042900020005700570057002E004B0049005400E3
:1042A00053005200550053002E0043004F004D00B4
:1042B0002C0020005700570057002E004E004500EC
:1042C000570046004F0055004E00440045004C008A
:1042D00045004300540052004F004E004900430087
:1042E00053002E0043004F004D005C004400490085
:0242F000590073
:00000001FF
