:040000002500B10A1C
:100010004D0875086C08740869086D086F08640855
:10002000650833082E08300830082008030C30001B
:10003000FF0C2F000008320C2A00AA0C2B008607A8
:100040006F000000EB021F0A66076E00F7022D0A20
:10005000FA0C3700F8022D0A7900EA021D0A00089E
:100060001A07380A0000F90C0600F90C26000008EF
:10007000FD0C0600F90C26000008FF0C0600FF0C22
:10008000260000081A074B0A0000F90C0600F90CBC
:100090002600040C1C0AFD0C0600F90C2600040CBA
:1000A0001C0A1A075A0A0000FB0C0600F90C26006D
:1000B000040C1C0AFD0C0600040C2A006D0C2B001D
:1000C000FB0C4607F90C260086076F00EB02600A5E
:1000D00066076E00FB0C4607F90C2600EA025E0A72
:1000E00000086D00040C28001E06830A1609120C75
:1000F0003C00040C1C09F002800A0F06AB0A16092A
:10010000FC02790A870A480C1C09FF0C30000D021A
:10011000AC092C006C02090C2900910A2C0303077E
:10012000930A5109950A42090000F0029A0A0F0643
:10013000AB0A1609E9028E0A4209F002A20A0F066A
:10014000AB0A16094209F002A80A0F06AB0A160903
:10015000AD02E802870A0008E20153084308450897
:100160004908820C0200640C1C09FF0C0600010CFB
:100170003100C80C1C09FF0C37003800390035006D
:100180000A0C3C00640C1C093D096606D60A640C86
:100190001C093009FC02C20A3D096607CD0AB102FA
:1001A000050C91000307D60A010C3100FF0C2E004C
:1001B0001E0C27001B090E07B90AE702DA0AFF0C1A
:1001C0003A00190C3B00140C3C004606EA0AFC02FB
:1001D000E50AF90A140C3C004607F10AFC02EC0A95
:1001E000F90AFB02E30A7A00F90C2600FD0C06006E
:1001F000FD0AF90C2600F90C0600FF0C2E00070C76
:1002000027000606E60B1B090E07B90AE702030BD7
:1002100011023F00FF004306210BFF004306250BA0
:10022000FF0043061B0BFF004306160BFF0C0600E6
:100230006607B90A180BFF0C3E0071090E07B90AD0
:100240001D0B1A07290B7500450B1A06450BB10249
:10025000080B220C32002E0B180C320030096607F6
:10026000B90A06062F0BFF0C3E0071090E07B90AEA
:1002700006062C0BF202350B30097E00710930099D
:100280000E07B90A06062C0B3E0BFF0C3E00710947
:100290000E07B90A8607450BFF0C340036003900FB
:1002A000640C3800FA0C37006607B90A0606450BDD
:1002B0008607900B540B3D09FF0C3300C80C3C0023
:1002C0000E0C1C090E07B90A0606DC0B86076C0B20
:1002D000FC02600B73005E0B30091407A00B0D0CC1
:1002E0003D000A0C1C090E07B90A0606DC0B86063F
:1002F0008D0BFD02710B74001306A00B1606C50BC7
:10030000190C3D000A0C1C090E07B90A0606DC0B85
:1003100086065B0BFD02820BC50B3D097600600B68
:1003200030094B0C3C000A0C1C090E07B90A0606E2
:10033000DC0B86069E0BFC02930BA00B74005B0B80
:100340003009060C2700190C3C000A0C1C090E078A
:10035000B90A0606DC0B86065B0BFC02A50BE7025E
:10036000A30B740030090B0C2700190C3C000A0C7D
:100370001C090E07B90A0606DC0B86065B0BFC029D
:10038000B70BE702B50B030CC80B040CC80B180C19
:10039000320074001507CE0B1907A00B0E07B90A1F
:1003A0000606DC0B8606D70B7109F202CE0B440C55
:1003B0003800FA0C3700A00B3009FF0C1C09FF0CA9
:1003C00039006607B90A0606E10BC70B7109E60B8F
:021FFE00EA0FE8
:00000001FF
